:020000040800F2
:100000008006002089010008910100089301000882
:100010009501000897010008990100080000000000
:100020000000000000000000000000009B0100082C
:100030009D010008000000009F010008490A000817
:10004000A3010008A3010008A3010008A301000800
:10005000A3010008A3010008A3010008A3010008F0
:10006000A3010008A3010008A3010008A3010008E0
:10007000A3010008A3010008A3010008A3010008D0
:10008000A3010008A3010008A3010008A3010008C0
:10009000A3010008A3010008A3010008A3010008B0
:1000A000A3010008A3010008A3010008A3010008A0
:1000B000A3010008A3010008A3010008A301000890
:1000C000A3010008A3010008A3010008A301000880
:1000D000A3010008A3010008A3010008A301000870
:1000E000A3010008A3010008A301000800F002F822
:1000F00000F03AF80AA090E8000C82448344AAF188
:100100000107DA4501D100F02FF8AFF2090EBAE885
:100110000F0013F0010F18BFFB1A43F0010318473B
:10012000480A0000680A0000103A24BF78C878C165
:10013000FAD8520724BF30C830C144BF04680C60ED
:10014000704700000023002400250026103A28BF35
:1001500078C1FBD8520728BF30C148BF0B60704739
:100160001FB51FBD10B510BD00F031F81146FFF7E7
:10017000F7FF00F0B3FC00F04FF803B4FFF7F2FF15
:1001800003BC00F057F800000948804709480047C1
:10019000FEE7FEE7FEE7FEE7FEE7FEE7FEE7FEE737
:1001A000FEE7FEE704480549054A064B7047000094
:1001B000610A0008ED000008800000208006002091
:1001C000800200208002002070477047704775460B
:1001D00000F02CF8AE4605006946534620F00700B3
:1001E000854618B020B5FFF7DDFFBDE820404FF091
:1001F00000064FF000074FF000084FF0000B21F011
:100200000701AC46ACE8C009ACE8C009ACE8C009DD
:10021000ACE8C0098D46704710B50446AFF30080C6
:100220002046BDE81040FFF7A8BF00000048704717
:100230001C00002001491820ABBEFEE7260002008A
:100240007047000010B50121194800F017FA00BFEF
:100250001849174800F0F1F90028F9D00022D02100
:10026000134800F0BBFA00BF1349114800F0E5F94C
:100270000028F9D007210E4800F0B9FA00BF0E4956
:10028000891E0B4800F0D9F90028F8D00021084851
:1002900000F0ADFA00BF0849891C054800F0CDF90F
:1002A0000028F8D00121024800F0F4F910BD000048
:1002B00000580040010003008200070010B5012132
:1002C0003A4800F0AEF90121384800F0D7F900BFF4
:1002D0003749364800F0B1F90028F9D00022D02182
:1002E000324800F07BFA00BF3249304800F0A5F9EF
:1002F0000028F9D000212D4800F079FA00BF2D49DF
:10030000891C2A4800F099F90028F8D001212748D3
:1003100000F0B4F900BF2649244800F08EF9002807
:10032000F9D00122D021214800F058FA00BF20491D
:10033000491C1E4800F081F90028F8D000BF1E4972
:100340001A4800F0B3F90028F9D000BF18493F312E
:10035000164800F072F90028F8D00021134800F088
:1003600060F9124800F036FA1449087001210F486C
:1003700000F090F900BF0E493F310C4800F05DF9E4
:100380000028F8D0094800F025FA0D49087000BF90
:1003900007493F31054800F050F90028F8D00348DC
:1003A00000F018FA0749087010BD0000005800401E
:1003B0000100030082000700040000100400002078
:1003C000050000200600002010B501214B4800F078
:1003D00055F900BF4A49494800F02FF90028F9D0E3
:1003E0000022D021454800F0F9F900BF45494348B3
:1003F00000F023F90028F9D00021404800F0F7F977
:1004000000BF4049891E3D4800F017F90028F8D088
:100410001E2000F055FB04462146384800F0E7F95D
:1004200000BF3849891E354800F007F90028F8D088
:100430001B2000F045FB04462146304800F0D7F968
:1004400000BF3049891E2D4800F0F7F80028F8D089
:10045000172000F035FB04462146284800F0C7F974
:1004600000BF2849891E254800F0E7F80028F8D089
:10047000022000F025FB04462146204800F0B7F991
:1004800000BF2049891E1D4800F0D7F80028F8D089
:10049000142000F015FB04462146184800F0A7F987
:1004A00000BF1849891E154800F0C7F80028F8D089
:1004B000172000F005FB04462146104800F097F98C
:1004C00000BF1049891E0D4800F0B7F80028F8D089
:1004D000002000F0F5FA04462146084800F087F9AC
:1004E00000BF0849891C054800F0A7F80028F8D08B
:1004F0000121024800F0CEF810BD00000058004075
:1005000001000300820007002DE9F04102460025AA
:100510000026002000230024002791F803C00CF0DF
:100520000F0591F803C00CF0100CBCF1000F03D0C4
:1005300091F802C04CEA050591F800C0BCF1000F2B
:1005400031D0146800202BE04FF0010C0CFA00F3BE
:10055000B1F800C00CEA03069E4220D183004FF0A0
:100560000F0C0CFA03F7BC4305FA03FC4CEA040435
:1005700091F803C0BCF1280F06D14FF0010C0CFA22
:1005800000FCC2F814C00AE091F803C0BCF1480FA7
:1005900005D14FF0010C0CFA00FCC2F810C0401C51
:1005A0000828D1D31460B1F800C0BCF1FF0F34DDCE
:1005B000546800202EE000F1080C4FF0010808FA02
:1005C0000CF3B1F800C00CEA03069E4221D183006F
:1005D0004FF00F0C0CFA03F7BC4305FA03FC4CEA8E
:1005E000040491F803C0BCF1280F05D100F1080CF8
:1005F00008FA0CF8C2F8148091F803C0BCF1480F57
:1006000007D100F1080C4FF0010808FA0CF8C2F805
:100610001080401C0828CED35460BDE8F0810161F1
:10062000704721B1028842F48062028004E00288AF
:100630004FF6FF331A400280704770B5024600241F
:10064000002500230020958A138B1B0445EA03062E
:1006500026F07F4404EA01068E4201D1012000E029
:10066000002070BD21B1028842F00102028004E046
:1006700002884FF6FE731A400280704721B102884B
:1006800042F48072028004E002884FF6FF631A4051
:100690000280704721B1028842F40072028004E0B7
:1006A00002884FF6FF531A40028070470CB502468D
:1006B000002000230193009300920B0F019321F07F
:1006C0007F41019B1BB1009B1433009303E0090C95
:1006D000009B18330093009B1B680B400BB101205B
:1006E00000E000200CBD00002DE9F04385B0044679
:1006F0000D460026B1460427DFF8CC80A6884FF6C9
:10070000C0700640684600F0C1F8DDF808802F4848
:10071000B8FBF0F01FFA80F946EA0906A6802088A7
:100720004FF6FE710840208000262949286888423B
:100730000CD828684000B8FBF0F087B2042F00DA2C
:1007400004273E4309F10100208427E0E8884BF6A6
:10075000FF71884206D1286800EB4000B8FBF0F03A
:1007600087B209E0286800EBC00101EB0010B8FB7C
:10077000F0F087B247F48047C7F30B0008B947F0A1
:10078000010747F4004006434FF4967009FB00F060
:100790004FF47A7190FBF1F0401C2084A6832088EE
:1007A00040F00100208026884FF6F5300640A888EA
:1007B0006989084306432680A8892989084320813E
:1007C00005B0BDE8F083000000127A0040420F003F
:1007D000A08601000146088AC0B2704712B141F0FC
:1007E000010102E04FF6FE73194001827047018259
:1007F0007047000030B51249B1F1807F00D31DE091
:1008000021F07F40401E4FF0E022506150170F2230
:10081000002807DA13071D0E0A4B00F00F04241FEF
:100820001D5503E013071C0E074B1C5400BF00208E
:100830004FF0E02290610720106100BF30BD000042
:100840004019010018ED00E000E400E029B1064A7B
:10085000D2690243044BDA6104E0034AD26982435D
:10086000014BDA61704700000010024029B1064ACE
:1008700092690243044B9A6104E0034A92698243FD
:10088000014B9A61704700000010024030B5002112
:100890000022002400232D4D6D6805F00C0121B1CC
:1008A000042905D0082923D105E0294D056022E05F
:1008B000274D05601FE0254D6D6805F47012234D2E
:1008C0006D6805F48034022505EB92421CB9214D78
:1008D000554305600BE01D4D6D6805F400351DB1F5
:1008E0001C4D5543056002E0194D5543056002E07B
:1008F000174D056000BF00BF144D6D6805F0F00195
:100900000909154D6B5C0568DD4045600F4D6D684C
:1009100005F4E061090A104D6B5C4568DD408560B7
:100920000A4D6D6805F46051C90A0B4D6B5C456852
:10093000DD40C560054D6D6805F44041890B074DEC
:100940006B5CC568B5FBF3F5056130BD0010024076
:1009500000127A0000093D00070000201700002067
:1009600010B500F001F810BD0CB50020019000900A
:100970003348006840F480303149086000BF304897
:10098000006800F4003000900198401C019000982D
:1009900018B90198B0F5A06FF1D12948006800F4AA
:1009A000003010B10120009001E00020009000987C
:1009B000012843D12348006840F010002149086015
:1009C0000846006820F0070008600846006840F00C
:1009D000020008601A4840681949486008464068A3
:1009E00048600846406840F48060486008464068B7
:1009F00020F47C1048600846406840F4E8104860E5
:100A00000846006840F08070086000BF0C4800682D
:100A100000F000700028F9D00948406820F0030079
:100A2000074948600846406840F00200486000BF3F
:100A30000348406800F00C000828F9D10CBD000004
:100A4000001002400020024004480068401C20B111
:100A500002480068401C01490860704700000020FF
:100A600010B51348006840F00100114908600846BD
:100A70004068104908400E494860084600680E4921
:100A800008400B4908600846006820F48020086090
:100A90000846406820F4FE0048604FF41F0088605C
:100AA000FFF75EFF4FF000600449086010BD0000D2
:100AB000001002400000FFF8FFFFF6FE08ED00E026
:100AC00001460A2091FBF0F200FB12100A2291FB72
:100AD000F2F240EA0210C0B27047000086B0FFF7A1
:100AE00089FE01210820FFF7C1FE01218805FFF7DB
:100AF000ADFE4FF440611948FFF791FD1C208DF8C1
:100B0000170003208DF816008002ADF8140005A927
:100B10001248FFF7F9FC0020ADF80E004FF48040BA
:100B2000ADF810000E4801904BF6FF70ADF80A00CA
:100B30000020ADF80800ADF80C0001A90948FFF746
:100B4000D3FD01210748FFF78DFDFFF77BFBFFF782
:100B50003BFCFFF7B3FB00BFFEE70000000C0140C9
:100B6000A086010000580040880B0008000000200B
:100B70001C00000028010008A40B00081C00002035
:100B800064060000440100080000000000000000AE
:100B90000000000102030401020304060708090221
:040BA000040608003F
:04000005080000ED02
:00000001FF
