:020000040800F2
:100000006808002089010008910100089301000898
:100010009501000897010008990100080000000000
:100020000000000000000000000000009B0100082C
:100030009D010008000000009F010008090700085A
:10004000A3010008A3010008A3010008A301000800
:10005000A3010008A3010008A3010008A3010008F0
:10006000A3010008A3010008A3010008A3010008E0
:10007000A3010008A3010008A3010008A3010008D0
:10008000A3010008A3010008A3010008A3010008C0
:10009000A3010008A3010008A3010008A3010008B0
:1000A000A3010008A3010008A3010008A3010008A0
:1000B000A3010008A3010008A3010008A301000890
:1000C000A3010008A3010008A3010008A301000880
:1000D000A3010008A3010008A3010008A301000870
:1000E000A3010008A3010008A301000800F002F822
:1000F00000F03AF80AA090E8000C82448344AAF188
:100100000107DA4501D100F02FF8AFF2090EBAE885
:100110000F0013F0010F18BFFB1A43F0010318473B
:100120006007000080070000103A24BF78C878C13B
:10013000FAD8520724BF30C830C144BF04680C60ED
:10014000704700000023002400250026103A28BF35
:1001500078C1FBD8520728BF30C148BF0B60704739
:100160001FB51FBD10B510BD00F058F81146FFF7C0
:10017000F7FF00F005FB00F076F803B4FFF7F2FF9D
:1001800003BC00F07DF8000009488047094800479B
:10019000FEE7FEE7FEE7FEE7FEE7FEE7FEE7FEE737
:1001A000FEE7FEE704480549054A064B7047000094
:1001B00021070008ED000008680200206808002000
:1001C00068040020680400204FF0000200B51346C8
:1001D00094469646203922BFA0E80C50A0E80C5067
:1001E000B1F12001BFF4F7AF090728BFA0E80C5018
:1001F00048BF0CC05DF804EB890028BF40F8042B11
:1002000008BF704748BF20F8022B11F0804F18BF7D
:1002100000F8012B7047704770477047754600F033
:100220002BF8AE4605006946534620F00700854688
:1002300018B020B5FFF7B6FFBDE820404FF000062C
:100240004FF000074FF000084FF0000B21F00701BE
:10025000AC46ACE8C009ACE8C009ACE8C009ACE801
:10026000C0098D46704710B50446AFF300802046A4
:10027000BDE81040FFF781BF00487047040200202E
:1002800001491820ABBEFEE72600020070470000BF
:100290000021044A116000BF024909688142FBD372
:1002A00070470000000000202DE9F04102460025C3
:1002B0000026002000230024002791F803C00CF042
:1002C0000F0591F803C00CF0100CBCF1000F03D027
:1002D00091F802C04CEA050591F800C0BCF1000F8E
:1002E00031D0146800202BE04FF0010C0CFA00F321
:1002F000B1F800C00CEA03069E4220D183004FF003
:100300000F0C0CFA03F7BC4305FA03FC4CEA040497
:1003100091F803C0BCF1280F06D14FF0010C0CFA84
:1003200000FCC2F814C00AE091F803C0BCF1480F09
:1003300005D14FF0010C0CFA00FCC2F810C0401CB3
:100340000828D1D31460B1F800C0BCF1FF0F34DD30
:10035000546800202EE000F1080C4FF0010808FA64
:100360000CF3B1F800C00CEA03069E4221D18300D1
:100370004FF00F0C0CFA03F7BC4305FA03FC4CEAF0
:10038000040491F803C0BCF1280F05D100F1080C5A
:1003900008FA0CF8C2F8148091F803C0BCF1480FB9
:1003A00007D100F1080C4FF0010808FA0CF8C2F868
:1003B0001080401C0828CED35460BDE8F081416114
:1003C000704701617047000030B51249B1F1807F7C
:1003D00000D31DE021F07F40401E4FF0E02250612D
:1003E00050170F22002807DA13071D0E0A4B00F0E2
:1003F0000F04241F1D5503E013071C0E074B1C544C
:1004000000BF00204FF0E02290610720106100BF84
:1004100030BD00004019010018ED00E000E400E0EC
:1004200070B504464FF480511048FFF7C8FF032011
:1004300000F0BEF8200C00F0BBF8C4F30F2000F071
:10044000B7F8A0B200F0B4F8002506E0002000F0F4
:10045000AFF807494855681C85B2FF2DF6DD4FF40B
:1004600080510248FFF7ADFF70BD0000000C014055
:100470000401002070B505464FF480511148FFF784
:100480009EFF062000F094F8022000F091F8280C5E
:1004900000F08EF8C5F30F2000F08AF8A8B200F043
:1004A00087F8002406E008490C55085D00F080F844
:1004B000601C84B2FF2CF6DD4FF480510148FFF739
:1004C00080FF70BD000C01400400002029B1064AE5
:1004D000D2690243044BDA6104E0034AD2698243E1
:1004E000014BDA61704700000010024029B1064A52
:1004F00092690243044B9A6104E0034A9269824381
:10050000014B9A61704700000010024010B54FF493
:1005100080510A48FFF753FF9F2000F049F8002060
:1005200000F046F8002000F043F8002000F040F80A
:100530004FF480510148FFF744FF10BD000C01400B
:1005400021B1028842F04002028004E002884FF6A6
:10055000BF731A40028070470246002013890B4087
:100560000BB1012000E000207047014688897047E8
:100570008181704710B50022028802F441520B8835
:100580004C8823438C882343CC8823430C89234302
:100590004C8923438C892343CC8923431A4302800B
:1005A000838B4FF2FF74234083830B8A038210BD39
:1005B00010B5044621460748FFF7DAFF00BF802147
:1005C0000448FFF7C9FF0128F9D00248FFF7CDFF23
:1005D00010BD00000038004010B504464FF48051B3
:1005E0000E48FFF7ECFE0620FFF7E2FF2020FFF7A2
:1005F000DFFF200CFFF7DCFFC4F30F20FFF7D8FF6D
:10060000A0B2FFF7D5FF4FF480510448FFF7D9FEA1
:100610004FF4C870FFF73CFE10BD0000000C014015
:1006200010B500F001F810BD0CB50020019000904D
:100630003348006840F480303149086000BF3048DA
:10064000006800F4003000900198401C0190009870
:1006500018B90198B0F5A06FF1D12948006800F4ED
:10066000003010B10120009001E0002000900098BF
:10067000012843D12348006840F010002149086058
:100680000846006820F0070008600846006840F04F
:10069000020008601A4840681949486008464068E6
:1006A00048600846406840F48060486008464068FA
:1006B00020F47C1048600846406840F4E810486028
:1006C0000846006840F08070086000BF0C48006871
:1006D00000F000700028F9D00948406820F00300BD
:1006E000074948600846406840F00200486000BF83
:1006F0000348406800F00C000828F9D10CBD000048
:10070000001002400020024004480068401C20B154
:1007100002480068401C0149086070470000002042
:1007200010B51348006840F0010011490860084600
:100730004068104908400E494860084600680E4964
:1007400008400B4908600846006820F480200860D3
:100750000846406820F4FE0048604FF41F0088609F
:10076000FFF75EFF4FF000600449086010BD000015
:10077000001002400000FFF8FFFFF6FE08ED00E069
:1007800088B0FFF721FE01210820FFF7AFFE4FF4EC
:1007900070413948FFF715FE0020079018208DF8AA
:1007A0001F004FF42040ADF81C0003208DF81E0000
:1007B00007A93148FFF778FD0020069004208DF846
:1007C0001B000003ADF8180003208DF81A0006A9DD
:1007D0002948FFF769FD0020059010208DF81700CB
:1007E0000002ADF8140003208DF8160005A9224878
:1007F000FFF75AFD01218803FFF768FE14216846C0
:10080000FFF7E2FC2820ADF80C000120ADF808004D
:100810000220ADF806004FF6FF70ADF81000002082
:10082000ADF80400ADF80000ADF80E004FF4827092
:10083000ADF802004FF40070ADF80A0069460F48A9
:10084000FFF798FE01210D48FFF77AFEFFF75EFEE5
:100850000120FFF71DFD0020FFF7BEFE0120FFF77E
:1008600017FD0020FFF706FE0120FFF711FD002015
:10087000FFF7D6FD00BFFEE7000C01400038004046
:10088000A008000800000020040000002801000863
:10089000A4080008040000206408000044010008C7
:0408A0000000000054
:04000005080000ED02
:00000001FF
