:020000040800F2
:10000000680600208901000891010008930100089A
:100010009501000897010008990100080000000000
:100020000000000000000000000000009B0100082C
:100030009D010008000000009F010008A1010008C8
:10004000A3010008A3010008A3010008A301000800
:10005000A3010008A3010008A3010008A3010008F0
:10006000A3010008A3010008A3010008A3010008E0
:10007000A3010008A3010008A3010008A3010008D0
:10008000A3010008A3010008A3010008A3010008C0
:10009000A3010008A3010008A3010008A3010008B0
:1000A000A3010008A3010008A3010008A3010008A0
:1000B000A3010008A3010008A3010008A301000890
:1000C000A3010008A3010008A3010008A301000880
:1000D000A3010008A3010008A3010008A301000870
:1000E000A3010008A3010008A301000800F002F822
:1000F00000F03AF80AA090E8000C82448344AAF188
:100100000107DA4501D100F02FF8AFF2090EBAE885
:100110000F0013F0010F18BFFB1A43F0010318473B
:10012000E00A0000000B0000103A24BF78C878C134
:10013000FAD8520724BF30C830C144BF04680C60ED
:10014000704700000023002400250026103A28BF35
:1001500078C1FBD8520728BF30C148BF0B60704739
:100160001FB51FBD10B510BD00F031F81146FFF7E7
:10017000F7FF00F0B9FA00F04FF803B4FFF7F2FF11
:1001800003BC00F057F800000948804709480047C1
:10019000FEE7FEE7FEE7FEE7FEE7FEE7FEE7FEE737
:1001A000FEE7FEE704480549054A064B7047000094
:1001B000C1050008ED000008680000206806002066
:1001C000680200206802002070477047704775463B
:1001D00000F02CF8AE4605006946534620F00700B3
:1001E000854618B020B5FFF7DDFFBDE820404FF091
:1001F00000064FF000074FF000084FF0000B21F011
:100200000701AC46ACE8C009ACE8C009ACE8C009DD
:10021000ACE8C0098D46704710B50446AFF30080C6
:100220002046BDE81040FFF7A8BF00000048704717
:100230000800002001491820ABBEFEE7260002009E
:100240007047000070B5002426E000BF4FF48051D5
:10025000134800F013F90028F8D0282000F06BF8BC
:100260004FF480510E4800F009F928B9C4F1070194
:1002700001208840854305E0C4F107010120884042
:100280002843C5B200BF4FF48051054800F0F6F88E
:100290000028F8D1601CC4B2082CD6DB284670BDFB
:1002A000000C014010B500244FF48051194800F0B3
:1002B000EEF8122000F04EF84FF48051154800F08F
:1002C000E8F81E2000F037F84FF48051114800F094
:1002D000D5F810B9502000F02EF84FF480510D4899
:1002E00000F0CCF898B100214FF0804000F0A7F961
:1002F00000BF4FF48051074800F0C0F80028F8D143
:100300004FF0804000F098F9462800DA012420469A
:1003100010BD0000000C014010B500214FF08040DE
:1003200000F08DF900BF4FF0804000F085F9B0F586
:100330007A7FF8DB10BD10B5044600214FF08040F5
:1003400000F07DF900BF4FF0804000F075F9A04249
:10035000F9DB10BD10B5044602E0FFF7DDFF641EB7
:10036000002CFAD110BD2DE9F041024600250026EF
:10037000002000230024002791F803C00CF00F0593
:1003800091F803C00CF0100CBCF1000F03D091F8F1
:1003900002C04CEA050591F800C0BCF1000F31D055
:1003A000146800202BE04FF0010C0CFA00F3B1F8B8
:1003B00000C00CEA03069E4220D183004FF00F0CD0
:1003C0000CFA03F7BC4305FA03FC4CEA040491F869
:1003D00003C0BCF1280F06D14FF0010C0CFA00FC51
:1003E000C2F814C00AE091F803C0BCF1480F05D16F
:1003F0004FF0010C0CFA00FCC2F810C0401C082899
:10040000D1D31460B1F800C0BCF1FF0F34DD5468E3
:1004100000202EE000F1080C4FF0010808FA0CF360
:10042000B1F800C00CEA03069E4221D183004FF0D0
:100430000F0C0CFA03F7BC4305FA03FC4CEA040466
:1004400091F803C0BCF1280F05D100F1080C08FA9F
:100450000CF8C2F8148091F803C0BCF1480F07D122
:1004600000F1080C4FF0010808FA0CF8C2F81080EF
:10047000401C0828CED35460BDE8F081024600201D
:1004800093680B400BB1012000E0002070474161F0
:10049000704701617047000029B1064AD2690243E2
:1004A000044BDA6104E0034AD2698243014BDA610A
:1004B000704700000010024029B1064A92690243C9
:1004C000044B9A6104E0034A92698243014B9A61AA
:1004D000704700000010024010B500F001F810BD98
:1004E0000CB50020019000903348006840F4803043
:1004F0003149086000BF3048006800F400300090C7
:100500000198401C0190009818B90198B0F5A06FAF
:10051000F1D12948006800F4003010B101200090AA
:1005200001E0002000900098012843D12348006892
:1005300040F01000214908600846006820F00700DC
:1005400008600846006840F0020008601A484068E9
:10055000194948600846406848600846406840F4C9
:10056000806048600846406820F47C104860084677
:10057000406840F4E81048600846006840F0807029
:10058000086000BF0C48006800F000700028F9D037
:100590000948406820F00300074948600846406861
:1005A00040F00200486000BF0348406800F00C00C3
:1005B0000828F9D10CBD00000010024000200240C4
:1005C00010B51348006840F0010011490860084662
:1005D0004068104908400E494860084600680E49C6
:1005E00008400B4908600846006820F48020086035
:1005F0000846406820F4FE0048604FF41F00886001
:10060000FFF76AFF4FF000600449086010BD00006A
:10061000001002400000FFF8FFFFF6FE08ED00E0CA
:1006200021B1028842F00102028004E002884FF604
:10063000FE731A40028070470146888C704781849F
:1006400070470000002202881D4B98420ED01D4BBF
:1006500098420BD0B0F1804F08D01B4B984205D088
:100660001A4B984202D01A4B984204D14FF68F731E
:100670001A404B881A43174B984207D0164B9842A2
:1006800004D04FF6FF431A40CB881A4302808B8870
:1006900083850B8803850A4B98420BD0094B9842FF
:1006A00008D00E4B984205D00D4B984202D00D4B0E
:1006B000984201D10B7A03860123838270470000A0
:1006C000002C0140003401400004004000080040BC
:1006D000000C0040001000400014004000400140A9
:1006E000004401400048014088B001210820FFF784
:1006F000E3FE4FF480514248FFF7CBFE0020079005
:100700004FF48050ADF81C0014208DF81F0003201A
:100710008DF81E0007A93A48FFF725FE012108467B
:10072000FFF7BAFE0020ADF812004FF6FF70ADF8EB
:1007300014004720ADF8100004A94FF08040FFF7E7
:1007400081FF01218807FFF76BFF57E0002003902E
:10075000FFF7A8FD03909DF80C00002849D0FFF793
:1007600071FD8DF80400FFF76DFD8DF80500FFF7B2
:1007700069FD8DF80600FFF765FD8DF80700FFF7AE
:1007800061FD8DF808009DF804009DF805100844EF
:100790009DF8061008449DF8071008449DF80810BD
:1007A000884225D19DF8050000F056F90646154906
:1007B00000F090F804469DF8040000F04DF905465D
:1007C000214600F025F8104908609DF8070000F068
:1007D00043F906460B4900F07DF804469DF80600F3
:1007E00000F03AF90546214600F012F80749086082
:1007F00000BF4FF4FA70FFF7ADFD00BFA6E70000A1
:10080000000C0140000020410000002004000020F6
:1008100090EA010F48BF81F0004100F18281421A45
:100820003CBF801A89184FEAD0524FF07F4C1CEA27
:10083000410FA2EBD15318BF9CEA026F00F03B803E
:100840004FF0004C4CEA00204CEA012121FA03FC55
:1008500010EB0C0C1ED202F1FF325FEA1C2040EBC1
:10086000C25038BF70471CF07F0F4FEA400C18BFD2
:10087000BCF17F4F38BF7047C3F12003994008BFD8
:1008800020F00100BCF17F4F38BF7047A0F1C0409D
:1008900000F03BB94FEA3C00000A40EBC25028BFD1
:1008A0001CF0FF0F4FEA400CE6D018BFBCF17F4FA1
:1008B00038BF7047EAE79CEA026F05D010EA5C0F88
:1008C00008BF00F00040704710B500F0D8F800BF36
:1008D00064FBBE3E4FF47F0C1CEAD0121EBF1CEA24
:1008E000D11392EA0C0F93EA0C0F00F0858090EA86
:1008F000010F48BF42F4807240F4000C41F4000044
:100900002CF07F4120F07F4000B58142A2EB030232
:100910000FF2081CACEB504EC0F100009EF800E056
:100920004FEA4E0E00FB0EFC38BF49004FEA2C1C6C
:1009300002F5FA020CFB0EF34FEACE1E4FEA112C21
:100940004FEAC1210EEB635E42EB22420EFB0CFC30
:100950004FEA1C5300FB03114FEA112C4FEA0131FF
:100960000EFB0CFC4FEADC4C00FB0C11C14228BF13
:1009700009184CEB03335DF804EB10EB410143EB3A
:10098000C250B2F57C0F38BF704729D512F0F00F76
:100990001CBF00F1C04000F000407047008182831E
:1009A0008485868788898B8C8D8E8F91929395967E
:1009B00097999A9C9D9FA0A2A3A5A7A8AAACAEB008
:1009C000B2B3B5B7B9BCBEC0C2C5C7C9CCCED1D40D
:1009D000D7D9DCDFE2E6E9ECF0F3F7FAFE0000003D
:1009E0004FEA400C0CF1807CBCF17E4F28BF704771
:1009F000B0F1C04000F089B890EA010F0CEAD113C1
:100A000048BF42F48072624538BF634507D213F491
:100A10007F0F16D080EA010000F00040704710B54B
:100A200000F02DF8097EFC3E00F005B880EA0100D8
:100A300000F00040704780EA010000F0004000F044
:100A400064B812F47F0F04BF0248704780EA0100C7
:100A500000F05BB80000C07FB0FA80F310FA03F238
:100A6000C3F19D030AD0D90501EB1220530638BF0C
:100A7000704700F1010008BF20F0010070470EF13F
:100A8000020E2EF0030E5EF8044B244204D44FEA0B
:100A90004102B2F17F4F11D84FEA4003B3F17F4FCB
:100AA0000CD80ED14FEAD07CB2F17F4F0CEB4C0C3E
:100AB0000CF1020C08BF4CEBD17C04E04FF0080CA9
:100AC00001E04FEAD17C0CEB4C0324FA03F404F070
:100AD0000704B4F1040C06D20EEB840CBDE8104000
:100AE0004CF0010C6047DFE80CF0070802024FF001
:100AF0000040A0F5800010BD0846420018BFD2F1AA
:100B0000807288BF00F0004010BDFF2141EAD05044
:100B1000C005704790EA010F48BF81F000413FF5E2
:100B20007EAE421A04D882F00042A0EB02001144CB
:100B30004FEAD0524FF07F4C1CEA410FA2EBD15349
:100B400018BF9CEA026F4AD04FF0004C4CEA0020DC
:100B50004CEA012121FA03FCB0EB0C0C0FD412F08B
:100B6000FE0F36D05FEA4C001DD5001240EBC2509C
:100B700038BF70471CF03F0F18BF70470BE0A2F161
:100B800001025FEA1C2040EBC25038BF70471CF0E6
:100B90007F0F18BF7047C3F12003994014BF401E58
:100BA00020F00100704780084FEA122308BF704709
:100BB000B0FA80FCA2EB0C02CCF1280C60FA0CF02D
:100BC00093EA122F04BF00EBC25070474FEAC37084
:100BD0007047130A5FEADC1008BF7047F6E79CEA2B
:100BE000026F04D010EA5C0F08BF0020704710B5F8
:100BF000FFF745FF40DFF63E81F000407047000000
:100C0000200C000800000020080000002801000857
:100C1000280C0008080000206006000044010008BD
:080C20000000000000000000CC
:04000005080000ED02
:00000001FF
